:020000020000FC
:1000000016C018951895189518951895189518955F
:10001000189509C0189518951895189506C0189543
:100020001895189518954395189515B1189504E0ED
:100030000EBF0FE50DBF0F9307E609B90F910F93A0
:1000400000E000BD0F910F9300E00BB90F910F93EB
:1000500008E90AB90F910F9306E800BD0F9109B79F
:10006000016009BF01E005BF05E003BFA39AAB989B
:10007000A298AA98B89AB99ABA9ABB9A8A9A8B9A6D
:100080008C9A8D9A8E9A8F9A4F934F934F934F934A
:100090004F934F934F934F934F934F934F934F9350
:1000A0004F934F934F934F937894C19808E370D137
:1000B000C29AC2D1C298C1980CE06AD1C29ABCD18E
:1000C000C298C19801E064D1C29AB6D1C298C198D1
:1000D00001E05ED1C29AB0D1C298C19A03E558D16D
:1000E000C29AAAD1C298C19A00E552D1C29AA4D1AB
:1000F000C298C19A03E54CD1C29A9ED1C298C19AC6
:100100000AE346D1C29A98D1C298C19A04E540D177
:10011000C29A92D1C298C19A05E43AD1C29A8CD1BE
:10012000C298C19A03E434D1C29A86D1C298C19AC6
:1001300008E42ED1C29A80D1C298C19800EC28D18F
:10014000C29A7AD1C298C19A0CE322D1C29A74D1D0
:10015000C298C19A08EC1CD1C29A6ED1C298C19AB9
:1001600002E316D1C29A68D1C298C19A00E310D1B5
:10017000C29A62D1C298C19A01E30AD1C29A5CD1F3
:10018000C298C19A05E304D1C29A56D1C298C19AC5
:1001900009ECFED0C29A50D1C298C19A0EE3F8D0B1
:1001A000C29A4AD1C2980F931F933F9304E61FEF60
:1001B0003FEF3A95F1F71A95D9F70A95C1F73F91B4
:1001C0001F910F91C19801E0E3D0C29A35D1C29836
:1001D000C19A0DE2DDD0C29A2FD1C298C19A00E235
:1001E000D7D0C29A29D1C298C19A00EED1D0C29A72
:1001F00023D1C298C19A01E6CBD0C29A1DD1C29830
:10020000C19A0BEBC5D0C29A17D1C298C19A04EC1F
:10021000BFD0C29A11D1C298C19A00E2B9D0C29A95
:100220000BD1C298C19A0DE2B3D0C29A05D1C2983F
:10023000C19800ECADD0C29AFFD0C298C19A00E23A
:10024000A7D0C29AF9D0C298C19A00E2A1D0C29AAE
:10025000F3D0C298C19A0FE59BD0C29AEDD0C29854
:10026000C19A0FE595D0C29AE7D0C298C19A0FE51E
:100270008FD0C29AE1D0C298C19A00E289D0C29AC6
:10028000DBD0C298C19A03E683D0C29AD5D0C29877
:10029000C19A0CEB7DD0C29ACFD0C298442799273F
:1002A000AA27AB9A0F931F933F9301E01FEF3FEFF5
:1002B0003A95F1F71A95D9F70A95C1F73F911F9131
:1002C0000F91AB9800009A9901C0FCCF442702E03F
:1002D00003BF9A9B01C0FDCF00E003BF4395A40F6D
:1002E0009395943009F0DDCF4A2F469512D0992787
:1002F000AA270F931F933F930AE01FEF3FEF3A9512
:10030000F1F71A95D9F70A95C1F73F911F910F910F
:10031000C8CF25D0C19800EC3BD0C29A8DD0C298EE
:10032000C19A00E235D0C29A87D0C298C19A00E241
:100330002FD0C29A81D0C298C19A00E229D0C29A25
:100340007BD0C298C19A062F23D0C29A75D0C2988A
:10035000C19A072F1DD0C29A6FD0C29808958827DE
:10036000552766277727841771F0839573957A3020
:10037000D1F7772763956A30B1F7662753955A30DE
:1003800091F75527F0CF00E3500F600F700F0895DD
:1003900000FFC39800FDC39A01FFC09801FDC09AF9
:1003A00002FF979802FD979A03FF969803FD969A8D
:1003B00004FF959804FD959A05FF949805FD949A7D
:1003C00006FF939806FD939A07FF929807FD929A6D
:1003D000089500FFBB9800FDBB9A01FFB89801FD8E
:1003E000B89A02FF8F9802FD8F9A03FF8E9803FD43
:1003F0008E9A04FF8D9804FD8D9A05FF8C9805FD5B
:100400008C9A06FF8B9806FD8B9A07FF8A9807FD4A
:100410008A9A08950027B3990160B099026087997C
:1004200004608699086085990061849900628399C7
:1004300000648299006808950F931F9304E614E600
:0E0440001A95F1F70A95D9F71F910F910895BB
:00000001FF
