:020000020000FC
:1000000016C018951895189518951895189518955F
:10001000189509C0189518951895189506C0189543
:100020001895189518954395189515B1189504E0ED
:100030000EBF0FE50DBF0F9307E609B90F910F93A0
:1000400000E000BD0F910F9300E00BB90F910F93EB
:1000500008E90AB90F910F9306E800BD0F9109B79F
:10006000016009BF01E005BF05E003BFA39AAB989B
:10007000A298AA98B89AB99ABA9ABB9A8A9A8B9A6D
:100080008C9A8D9A8E9A8F9A4F934F934F934F934A
:100090004F934F934F934F934F934F934F934F9350
:1000A0004F934F934F934F937894C19808E364D143
:1000B000C29AB6D1C298C1980CE05ED1C29AB0D1B2
:1000C000C298C19801E058D1C29AAAD1C298C198E9
:1000D00001E052D1C29AA4D1C298C19A03E54CD191
:1000E000C29A9ED1C298C19A00E546D1C29A98D1CF
:1000F000C298C19A03E540D1C29A92D1C298C19ADE
:100100000AE33AD1C29A8CD1C298C19A04E534D19B
:10011000C29A86D1C298C19A05E42ED1C29A80D1E2
:10012000C298C19A03E428D1C29A7AD1C298C19ADE
:1001300008E422D1C29A74D1C298C19800EC1CD1B3
:10014000C29A6ED1C298C19A0CE316D1C29A68D1F4
:10015000C298C19A08EC10D1C29A62D1C298C19AD1
:1001600002E30AD1C29A5CD1C298C19A00E304D1D9
:10017000C29A56D1C298C19A01E3FED0C29A50D118
:10018000C298C19A05E3F8D0C29A4AD1C298C19ADE
:1001900009ECF2D0C29A44D1C298C19A0EE3ECD0D5
:1001A000C29A3ED1C2980F931F933F9304E61FEF6C
:1001B0003FEF3A95F1F71A95D9F70A95C1F73F91B4
:1001C0001F910F91C19801E0D7D0C29A29D1C2984E
:1001D000C19A0DE2D1D0C29A23D1C298C19A00E24D
:1001E000CBD0C29A1DD1C298C19A03E4C5D0C29A9D
:1001F00017D1C298C19A0BEABFD0C29A11D1C29846
:10020000C19A05E4B9D0C29A0BD1C298C19A04E54B
:10021000B3D0C29A05D1C298C19A00E2ADD0C29AB9
:10022000FFD0C298C19A0DE2A7D0C29AF9D0C29865
:10023000C19800ECA1D0C29AF3D0C298C19A00E252
:100240009BD0C29AEDD0C298C19A00E295D0C29AD2
:10025000E7D0C298C19A0FE58FD0C29AE1D0C29878
:10026000C19A0FE589D0C29ADBD0C298C19A0FE536
:1002700083D0C29AD5D0C298C19A00E27DD0C29AEA
:10028000CFD0C298C19A00E277D0C29AC9D0C298A2
:10029000C19A00E271D0C29AC3D0C2984427AB9AE7
:1002A0000F931F933F9301E01FEF3FEF3A95F1F754
:1002B0001A95D9F70A95C1F73F911F910F91AB9805
:1002C00000009A9901C0FCCF442702E003BF9A9B2B
:1002D00001C0FDCF00E003BF10D00F931F933F93E9
:1002E00003E01FEF3FEF3A95F1F71A95D9F70A951A
:1002F000C1F73F911F910F91D2CF25D0C19800EC4B
:100300003BD0C29A8DD0C298C19A00E235D0C29A31
:1003100087D0C298C19A00E22FD0C29A81D0C298E9
:10032000C19A00E229D0C29A7BD0C298C19A062F06
:1003300023D0C29A75D0C298C19A072F1DD0C29AF5
:100340006FD0C29808958827552766277727841786
:1003500071F0839573957A30D1F7772763956A307A
:10036000B1F7662753955A3091F75527F0CF00E340
:10037000500F600F700F089500FFC39800FDC39ADF
:1003800001FFC09801FDC09A02FF979802FD979A5D
:1003900003FF969803FD969A04FF959804FD959A9D
:1003A00005FF949805FD949A06FF939806FD939A8D
:1003B00007FF929807FD929A089500FFBB9800FDF1
:1003C000BB9A01FFB89801FDB89A02FF8F9802FD11
:1003D0008F9A03FF8E9803FD8E9A04FF8D9804FD7B
:1003E0008D9A05FF8C9805FD8C9A06FF8B9806FD6B
:1003F0008B9A07FF8A9807FD8A9A08950027B39978
:100400000160B099026087990460869908608599B7
:10041000006184990062839900648299006808955C
:100420000F931F9304E614E61A95F1F70A95D9F78E
:060430001F910F910895D9
:00000001FF
