:020000020000FC
:1000000014C0189518951895189518951895189561
:1000100018951895189518951895189504C0189561
:1000200018951895189515B1189504E00EBF0FE5B1
:100030000DBF0F9307E609B90F910F9300E000BDC4
:100040000F910F9300E00BB90F910F9308E90AB9D4
:100050000F910F9306E800BD0F91B89AB99ABA9A1A
:10006000BB9A8A9A8B9A8C9A8D9A8E9A8F9A4F9372
:100070004F934F934F934F934F934F934F934F9370
:100080004F934F934F934F934F934F934F93789436
:10009000C19808E38BD0C29ADDD0C298C1980CE019
:1000A00085D0C29AD7D0C298C19801E07FD0C29AB9
:1000B000D1D0C298C19801E079D0C29ACBD0C29871
:1000C000C19A03E573D0C29AC5D0C298C19A00E51F
:1000D0006DD0C29ABFD0C298C19A03E567D0C29AC8
:1000E000B9D0C298C19A0AE361D0C29AB3D0C2987B
:1000F000C19A04E55BD0C29AADD0C298C19A05E41A
:1001000055D0C29AA7D0C298C19A03E44FD0C29AE0
:10011000A1D0C298C19A08E449D0C29A9BD0C29893
:10012000C19800EC43D0C29A95D0C298C19A0CE312
:100130003DD0C29A8FD0C298C19A08EC37D0C29AEB
:1001400089D0C298C19A02E331D0C29A83D0C298B2
:10015000C19A00E32BD0C29A7DD0C298C19A01E324
:1001600025D0C29A77D0C298C19A03E31FD0C29A11
:1001700071D0C298C19A09EC19D0C29A6BD0C298BA
:10018000C19A0EE313D0C29A65D0C2980F931F9301
:100190003F9303E21FEF3FEF3A95F1F71A95D9F736
:1001A0000A95C1F73F911F910F91FFCF00FFC398B0
:1001B00000FDC39A01FFC09801FDC09A02FF979805
:1001C00002FD979A03FF969803FD969A04FF95986F
:1001D00004FD959A05FF949805FD949A06FF93985F
:1001E00006FD939A07FF929807FD929A089500FFE3
:1001F000BB9800FDBB9A01FFB89801FDB89A02FFB9
:100200008F9802FD8F9A03FF8E9803FD8E9A04FF4C
:100210008D9804FD8D9A05FF8C9805FD8C9A06FF3C
:100220008B9806FD8B9A07FF8A9807FD8A9A089596
:100230000027B3990160B09902608799046086999C
:1002400008608599006184990062839900648299AD
:10025000006808950F931F9304E614E61A95F1F7CA
:0A0260000A95D9F71F910F91089538
:00000001FF
